:1000000000800010FD000000070B0000090B00003D
:1000100000000000000000000000000000000000E0
:100020000000000000000000000000000B0B0000BA
:1000300000000000000000000D0B0000A13B0000CC
:10004000050B0000050B0000050B0000050B000070
:10005000050B0000050B0000050B0000050B000060
:10006000050B0000050B0000050B0000050B000050
:10007000050B0000050B0000050B0000050B000040
:10008000050B0000050B0000050B0000050B000030
:10009000050B0000050B0000050B0000050B000020
:1000A000050B0000050B0000050B0000050B000010
:1000B000050B0000050B0000050B00000000000010
:1000C0003876000000010010800000003876000043
:1000D00000000020000000003876000000400020F2
:1000E00000000000800100106039000000000020C6
:1000F00000000000004000200000000010B5104C7F
:10010000104B9C4206D2A2686168206800F0FFFC98
:100110000C34F5E70C4B9C4205D26168206800F076
:10012000FFFC0834F6E700F057FC084B002B02D028
:1001300000E000BF03E003F0C7FF00F01BF9FEE79B
:10014000C0000000E4000000FC000000000000000F
:1001500010B5064C2378002B07D1054B002B02D09D
:10016000044800E000BF0123237010BD800100108F
:100170000000000038760000084B10B5002B03D0BB
:100180000749084800E000BF07480368002B00D17A
:1001900010BD064B002BFBD09847F9E7000000008C
:1001A000840100103876000080010010000000007B
:1001B000036810B50400013304D12C220549064818
:1001C00000F05CF9636960681B681840431E984141
:1001D00010BDC046DC5C00002B5D000070B5040063
:1001E0000D001822002103F09FFF2900200000F0DD
:1001F000ACF9200070BDFFFF012310B54A080E4C7A
:100200001A4022540D4C8A081A4022540C4CCA0839
:100210001A4022540B4C0A091A4022540A4C4A092B
:100220001A4022548A09094C1A402254C909084A22
:100230000B40135410BDC046F6010010F30100102E
:10024000F00100109C0100106A0200106D02001005
:100250007402001070B50B4C0B4D2378C1B22070A6
:1002600000202B70FFF7C8FF2378297802209943DC
:10027000FFF7C2FF2B78217801209943FFF7BCFFDD
:1002800070BDC04669020010D001001010B51948B9
:10029000FFF78EFF0400601E844117486400FFF7DB
:1002A00087FF002801D004231C431448FFF780FF78
:1002B000002801D008231C431148FFF779FF0028CC
:1002C00001D010231C430F48FFF772FF002801D014
:1002D00020231C430C48FFF76BFF002801D040236C
:1002E0001C430A48FFF764FF002801D080231C4309
:1002F000200010BDB801001030020010A001001055
:1003000018020010FC01001050020010D80100106B
:1003100010B501F003FD6E220F4B1A700F4B183A07
:100320001A7001F079FF042001F080FD0C4802F002
:100330005FFC0D230B4A012013800B4A138002F04F
:10034000FDFC02F0FDFC03F043FC7822074B186033
:10035000074B1A6010BDC0461201001016010010B4
:10036000BC5C0000220300101401001048020010C1
:1003700070020010F8B5FFF7CBFF0024222701F030
:100380005BFC00282CD0174D2878FFF77FFF2870E2
:10039000FFF760FF144A154E136801331360144BC6
:1003A0001B78142B01D10A3333603B0000216343D7
:1003B000104A0800D21802F061F901F05DFF052C27
:1003C00001D0013400E0002403F002FC0A4D2B6848
:1003D000C01A33689842F7D303F0FAFB2860CEE7DF
:1003E0000120F8BD14020010D401001070020010AA
:1003F00068020010435D00004802001010B510486C
:1004000001F0DAF80F491048FFF7E8FE0F491048ED
:10041000FFF7E4FE0F491048FFF7E0FE0F491048D0
:10042000FFF7DCFE0F491048FFF7D8FE0F491048D0
:10043000FFF7D4FE0F491048FFF7D0FE10BDC046AD
:100440004C02001084120100A0010010700801008D
:100450003002001088140100B8010010941A010045
:10046000D80100106C06010018020010C43201000F
:10047000FC0100107C0E01005002001010B51300AA
:100480000A000100014800F031F810BD535E000081
:1004900000B589B072B6124902A800F070F8029B4C
:1004A0000193013304D124220E490F48FFF7E6FFE0
:1004B000059B039A96201A60019200F06EFA029B47
:1004C0000193013304D1242206490748FFF7D6FFE0
:1004D000039A069B96201A60019200F05EFADEE70E
:1004E00038230200DC5C00002B5D00000FB401200B
:1004F00010B503F0D3FDFFFF036870B504000D00D5
:10050000013304D1242206490648FFF7B7FF636888
:10051000002D01D0E26800E02269136070BDC04682
:10052000DC5C00002B5D000070B50D0004001600BF
:1005300000F04EFB6B1C07D00021200000F070FB88
:100540003100200000F066FB70BD10B50122FFF7FE
:10055000EBFF10BD70B50D000400160000F038FB75
:100560006B1C0BD031002000FFF7C6FF01212000DB
:1005700000F056FB0021200000F04CFB70BD10B5D0
:100580000022FFF7E7FF10BD10B50400034B08334E
:1005900003601C3000F01EFC200010BD845E0000D3
:1005A00010B50400FFF7F0FF200000F0C3FA2000B0
:1005B00010BDFFFF70B5050004000E4B0E000833A0
:1005C00008C528001822002103F0AEFD00232000FA
:1005D0003100E36123626363A363E364064A23009B
:1005E0001C3000F095FB28003100FFF7AEFF200023
:1005F00070BDC046845E00005706000003000A007C
:1006000010B51C300121002A04D01A6200225A635E
:100610000132110000F0F2FB10BD030010B50A001A
:100620001C30002903D000229963DA6401320221D0
:1006300000F0E4FB10BD436910B50100002B04D1AC
:100640000368002B06D0984704E00068002801D01A
:100650000431984710BD10B5012903D0022904D1F7
:10066000383000E02030FFF7E6FF10BD10B5040081
:10067000431C12D00B685A1C0CD09C4208D120009D
:10068000896800F0E1FB0021200000F0F9FB04E0A4
:100690000C31EFE70148FFF729FF10BD945E000021
:1006A00010B5030088420AD00B00421C07D003009B
:1006B0004A1C04D00348FFF719FF01235B421800CE
:1006C00010BDC046A55E00000B685A1C05D08342D1
:1006D00001D1486802E00C31F6E718007047FFFFCF
:1006E00010B50400431C07D0FFF7EEFF0400431CC5
:1006F00002D10248FFF7FAFE200010BDB65E0000EE
:1007000010B5012003F0CAFC10B5002801D0FFF796
:10071000BFFEFEE7704710B5040000F00BFA2000A2
:1007200010BDFFFF73B504000E480025083020609F
:100730000820E0600C48261D6061069865602572FF
:1007400025610090300000F0D3FC2B0030002269BE
:10075000E16800F04DFD3000616900F07FFD200090
:1007600076BDC046F45E000040420F0070B5094DF2
:1007700004002B6883420BD0061D0269C168002368
:10078000300000F035FD6169300000F067FD2C603D
:1007900070BDC0467802001070B50D000400FFF770
:1007A000E5FF2900201D00F09DFD70BD10B504007F
:1007B00043684269991800F0BFF8E36A002B04D13E
:1007C000A369002B07D0984705E0A069002802D054
:1007D00021001C31984710BD10B5040000F0B4F89A
:1007E0000023A361E36210BD10B50400044B08337D
:1007F0000360FFF7F1FF200000F0ACF8200010BD0F
:10080000085F000010B50400FFF7EEFF200000F0C5
:1008100091F9200010BD70B50D00040000F094F8AF
:100820006561206900F068F82918200000F084F85C
:1008300070BD70B504000D0003681B6898476368BD
:100840001D6070BD036870B5DB680400984763687D
:100850005A682368002A02D19B68984713E05B68B6
:100860001568984763682D1A5A68002D07DC91684F
:1008700059601B68002BEAD050689847E7E7236867
:1008800010681B69984770BD70B50D0072B64B605B
:10089000002346680A607468002C05D02168511A4C
:1008A00002D42300A468F7E7002B05D10368756024
:1008B0001B691000984700E09D60AC6062B670BD97
:1008C00010B572B6426853688B420CD19B68536076
:1008D0000268002B02D1936898470BE012691868F0
:1008E000904707E01300002B04D09A689142F9D199
:1008F0008A689A6062B610BD10B503685B68984755
:1009000010BD10B503689B68984710BD084B10B523
:1009100008330360002343608360C360040000F079
:1009200025F804492061FFF784FF200010BDC04670
:100930001C5F00000309000010B50A000300011D40
:100940000069FFF7A1FF10BD10B5011D0069FFF799
:10095000B7FF10BD10B50400034B08330360FFF769
:10096000F3FF200010BDC0461C5F00000048704728
:10097000445F000010B50248FFF764FF10BDC04699
:10098000445F000070B5040000F0E8FC050000F0D2
:10099000E5FC401BA042FAD370BDFA2310B59B00C2
:1009A0005843FFF7EFFF10BD70B50A4CA568A36868
:1009B0002A00002B0AD180225E5952059A1804336E
:1009C0001660C02BF7D180225205A2601030800043
:1009D000815070BD00ED00E07FB580203F494002AE
:1009E000CA6F8E240243CA672322002020253C4B75
:1009F0003C499A60223A0A603B49A4000A601862A6
:100A000019593A4A114001910199A943C825019108
:100A100001992D02294319510090354800998142CE
:100A200004D8C046009901310091F7E70121002068
:100A300019645964586459645C6C29480C42FBD0B1
:100A40008E218026C825890044582D021440039425
:100A5000039C34430394039C2C434450232484601C
:100A6000445822400292029CB4430294029A2A43C0
:100A700042500120DC681A4901220442FAD00320C6
:100A8000086700204A67486710004A675C6F144A8D
:100A900001210442FAD08E20916780001558154C30
:100AA0002C4014501558144C2C40145000209164C4
:100AB000D164D064D164DA6C0A42FCD02321084AA4
:100AC0001161012259691142FCD000220B4B1A60BE
:100AD0001A600B4B01321A607FBDC046048004408F
:100AE00000800440F0400440F4400440FF25000032
:100AF000C3090000FFFBFFFFFFFEFFFFC0800440B3
:100B0000C8800440704770477047704770470023A3
:100B100010B5934203D21C585C500433F9E710BD62
:100B200000231A008B4202D21A500433FAE77047AE
:100B30000020704710B503F0EDFA10BD10B50400A9
:100B4000431C04D11E2217491748FFF797FC174B87
:100B50001A68002A06D101321A60154A1549D36F66
:100B60000B43D3670122002C12D0134B9C420FD0B1
:100B7000124B9C420CD0124B9C4209D0114B9C4210
:100B800006D0114B9C4203D0104BE1184A424A4117
:100B90002000110000F058F90120A404E40EA04048
:100BA00010BDC0464C5F0000305D000084020010A4
:100BB0000480044040000100281400002C160000AE
:100BC00030180000341A0000381C0000C4E1FFFF98
:100BD00070B505000C0029604B1C11D00800FFF710
:100BE000ADFF2414074BA400E318EB60064B6860CC
:100BF000E3182B61054BE3186B61054BE418AC60FF
:100C000070BDC046002200A0802200A0002100A0EC
:100C1000002000A010B5006800F032F910BDFFFF01
:100C2000036870B504000D00013304D14322094963
:100C30000948FFF723FC002D06D0012D09D1A26839
:100C4000636811680B4303E0A268616813688B4313
:100C5000136070BD4C5F00002B5D0000F7B50121F3
:100C60000D008540134C636A2B4221D0124B860045
:100C7000F058019300281BD023682B4218D16368D9
:100C80002B4206D0E3692B4203D00C4B1B689847DC
:100C9000E5612369074F2B4209D03B6A2B4206D0FE
:100CA000064B019A1B680221905998473D62656284
:100CB000F7BDC046004000A08C0200108802001062
:100CC00010B50020FFF7CAFF10BD10B50120FFF7D7
:100CD000C5FF10BD10B50220FFF7C0FF10BD10B555
:100CE0000320FFF7BBFF10BD10B50420FFF7B6FFD0
:100CF00010BD10B50520FFF7B1FF10BD10B50620DF
:100D0000FFF7ACFF10BD10B50720FFF7A7FF10BD20
:100D1000F7B505002748814202DD0120404248E046
:100D20002548264C02600020820016590096002EAD
:100D30003BD11351224C2860E36F224F224E3B439C
:100D4000E3671F248B0349120C401821A4460400BA
:100D50009B0F59435E346144A400A15181210124B9
:100D6000890071589B000F00210081400F4339001A
:100D70008127BF00F151A021802609065B18B6012A
:100D800099592700019161468F40019940B2B943BA
:100D900099510E4BD158FFF707FE1F222B68009880
:100DA00013409C400A4B1C6003E001300828BBD173
:100DB000B3E7FEBD13110200880200108C02001080
:100DC000048004408000090000800440985F000017
:100DD00000E100E000210368064A9B0010B599502D
:100DE000012281210068044C8240890063589343AA
:100DF000635010BD8C020010008004400368012085
:100E0000984070B50F4C2368034200D16062C5431F
:100E100026680C4B2E402660012909D1002A03D0F8
:100E20005A68104358600CE05A6815405D6008E04D
:100E3000002A03D01A691043186102E01A691540AC
:100E40001D6170BD004000A070B504000D00431C82
:100E500004D1152207490848FFF710FB074BE405AA
:100E6000E40DE418072322681D409A4315432560CA
:100E700070BDC046B85F0000305D00000040044017
:100E800070B504000D00431C05D11D220F49104808
:100E9000FFF7F4FA06E081231B01984214D00D4BB2
:100EA000984211D00C4BE405E40DE4182368042D9E
:100EB00004D18022D2001343236005E01822ED0004
:100EC000934315401D43256070BDC046B85F0000C8
:100ED000305D0000140A00000040044070B50C1C96
:100EE00005000021201C03F045FB002809D1FE214C
:100EF000201C890503F052FB002803D0FE24A40522
:100F000000E0002480232D689B00E85804F0B6F927
:100F1000211C03F0AFFE03F055FB81239B00E8503A
:100F200070BD8023F7B5812704689B00E258BF009D
:100F3000E059E15001920D0004F0A0F9061C01985F
:100F400004F09CF9011C301C03F0CAFC061C2800AC
:100F500004F04CF9011C301C03F08CFE03F032FB52
:100F6000E051F7BDF7B50F00060050493800FFF714
:100F7000B7FBC3B20500FF2B02D14D48FFF7B6FA0D
:100F80004C4B01211A78019310000840031E04D035
:100F90000A410B000A4200D081E00124210099405F
:100FA000019A4548127873600A4301990A70434ACE
:100FB00099008A5809333260C26F110080221206EC
:100FC0001143C1672000984003003D4A3800526831
:100FD000364913433A4A5360FFF748FB3768394AAA
:100FE0003B68394913430C223B607B6813437B60A9
:100FF0007A68364B13407B607B680193344B1868EA
:1010000003F0F2F8FE2301381B0140011840019B58
:1010100018437860E8B207281DD803F0DBF8040A0B
:101020001016040A1016A023DB00FC500222294BE4
:1010300010E0A123DB00FC500222274B0AE0A22390
:10104000DB00FC500222254B04E0A3230222DB003C
:10105000FC50234BFA508022C12352019B00FA50CE
:101060000123C0225B4292001E49BB500C32B95092
:10107000043ABB5080231C499B00F950FB58053AA9
:101080009B08FF3ABB5004227B68300093437B608F
:10109000FFF747FF30000021FFF720FFF7BD13489F
:1010A000FFF724FA01235B4277E7C04600600000A7
:1010B0006C600000AC0200100480044098600000E6
:1010C000008004400100060040420F001FF0FFFFB7
:1010D00004010010040500000C05000014050000C8
:1010E0001C05000001100000204E0000866000007A
:1010F000F0B5334E87B000910400310000980192A2
:101100000293FFF7EDFA2F4D070029000198FFF732
:10111000E7FA2D4903900298FFF7E2FA2B49049071
:101120000C98FFF7DDFA039905903800FFF7B8FA3D
:10113000059907000498FFF7B3FA01003800FFF79C
:10114000AFFA2060431C04D1482221492148FFF70F
:1011500095F92368204A93420FD0204A934219D12F
:1011600080201F49C002CB6F1E4A0343CB67012179
:101170001D4B1960536803310AE0802018490001B3
:10118000CB6F184A0343CB670121184B1960536892
:101190000B43536031000098FFF768FA290001986B
:1011A000FFF764FA08490298FFF760FA0C9B0133D5
:1011B00003D006490C98FFF759FA07B0F0BDC046B6
:1011C000E8610000A0600000DC6000002462000014
:1011D000246100006D6100000000044000800540B3
:1011E00004800440008004409C80044094800440BB
:1011F000F8B50E000221140002681D0053680700B4
:101200008B435360331F0C2B06D9032C04D9652262
:1012100010491148FFF732F98023E0010340013EF5
:101220001E43A30734003968DB0F0A689B01120CC8
:1012300012041C4314430D220C604B6893436A1E36
:1012400095410222AD001D434D604B6813434B6036
:10125000F8BDC0462461000081610000F7B502249A
:1012600005000E0002685368A34353601A4B1B68C5
:1012700001932100019802F0B7FF03F0B7FF071CAC
:10128000300003F0B3FF011C381C03F029FBFC21E4
:10129000890503F0AFF904F09FFC02F067FE04F04B
:1012A00065FCFF280FDC2B680C4A1C6119680138AB
:1012B0000A4002211A601A680002104318605A6836
:1012C0000A435A6007E0802302345B009C42D0D17D
:1012D0000348FFF70BF9F7BD04010010FF0000FF02
:1012E000BF61000002220368D8681042FCD00422CB
:1012F0009960D9681142FCD098687047104B70B55E
:101300001A68002A1AD1012580210E4A1D60D36F68
:10131000C9000B43D3670C4B0C4C186802230C49D3
:10132000636002F061FF0138E0600A4965601320E4
:10133000FFF73AFB8022084B12031A6070BDC046CB
:10134000B00200100480044004010010008001403D
:1013500040420F007509000000E100E0044B10B5A9
:101360001B68002B01D1FFF7C9FF024B986810BD25
:10137000B0020010008001400121034B98615A69BE
:101380000A435A617047C046008001400121024A69
:1013900053698B4353617047008001400122014B28
:1013A0001A60704700800140704770477047FFFF28
:1013B000FF22014B1A707047B402001010B501F003
:1013C00037FD10BD30B50023FF250A4C0A4AE15C09
:1013D000002902D0D15C013104E0D05C002804D0A7
:1013E000FF2801D1D15400E0D5540133072BEED1B1
:1013F00030BDC046E8170010B6020010034B185C61
:10140000013843425841C0B27047C046B60200108E
:10141000002210B51D4B19781A701D4A507800280B
:1014200001D001201870D078002803D00224187849
:10143000204318701078002803D004241878204323
:1014400018709078002803D008241878204318706A
:101450001079002803D01024187820431870507990
:10146000002803D020241878204318709279002A8D
:1014700003D040201A7802431A701B78054A1800DE
:1014800008409943044B1070197010BDB50200104C
:10149000E8170010BE020010BD020010014B1879C1
:1014A0007047C046E81700100023094A1380094A14
:1014B0001370094A1370094A13700122084B5242F3
:1014C0001A80084A084B1A600922084B1A707047A4
:1014D000C6020010C5020010CC020010BF020010AE
:1014E000C20200102C6C0000C8020010C4020010E0
:1014F00010B50248FFF7D8FF10BDC046C00200106B
:1015000037B572B600210422244B80255960196139
:10151000234BED001A608E22224B92009C582C43E4
:1015200080259C509C586D002C439C5001225A678A
:101530001400596719004B6F1A4D01222340FAD14C
:1015400014002B676A676B674B6F164A2340FBD109
:101550008E245364516CA400936013675360155933
:10156000114929408025019101992943C8250191FC
:1015700001992D0229431151A022842112068901CB
:1015800053500A4953500A4953500A4B9860001C63
:1015900001688D464068804737BDC046004000A0C6
:1015A00010E000E000800440FF250000042100005E
:1015B0000821000000ED00E07047FFFF10B5012496
:1015C0000020FC22154BD2001C70154B0100188026
:1015D000144B1A8000F052FC200001F0E1F9124A8D
:1015E000124B12689A4203D0114801F091FA03E0BD
:1015F000104B1868FFF784FFFFF750FF00280CD14D
:10160000FFF706FFFFF74AFF0028F5D0FFF746FF78
:10161000002802D0FFF7FCFEF8E710BD1001001013
:10162000300300100801001004FE03001EAB07B0D9
:101630004A6E00000CFE0300F8B50024012001F002
:10164000AFF9454BFC271C8000F0FAFB434D444B9F
:1016500044482B8000F0D0FF0123434E30213370EB
:10166000424BFF001C70424B60201C702F8001F029
:1016700055FA404801F040FA3821602001F04EFA56
:101680003D4801F039FA4021602001F047FA3B481B
:1016900001F032FA4821602001F040FA384801F0A8
:1016A0002BFA6021282001F039FA364801F024FA9B
:1016B000013C35482C8001F01FFA34482F8001F09E
:1016C0001BFA02232C80337002F082FA043485B2B4
:1016D000FFF79EFE7821682001F020FA0A21200001
:1016E00001F06CFA02F074FAFA239B00EB189842AE
:1016F00003D902F06DFA013C85B201F011FC00281B
:1017000008D001F00DFC041E02D0FFF781FEF8E7BF
:10171000FFF754FF01F0F8FB002807D001F0F4FBBD
:10172000002802D0FFF774FEF8E7040001F0F2FB96
:10173000002802D1002CCBD106E001F0EBFB002801
:1017400002D0FFF765FEF8E70123337000F078FB65
:10175000002001F025F9F8BD300300100801001049
:1017600000F8FFFFC8680000100100101101001010
:101770000A0100105F6E0000646E0000696E0000D8
:101780006E6E0000736E0000796E00007D6E0000CA
:10179000F0B5714C1E0023888BB005000F00049239
:1017A0000993002E06D00020322300901A00010079
:1017B00000F058FBFC23DB002380002E16D001F044
:1017C000E7F80400012001F0EBF801F0B1FA39006C
:1017D00002001439681EC9B2C0B20A2301F0F2F93E
:1017E0005E4801F089F9200001F0DAF8049B0B2B28
:1017F00002DC5B4A584B1A803BB203930123594CDD
:10180000009328B22200039900F042FB049B172B9F
:1018100002DC534B504A1380ABB21D000126083541
:101820002DB205932200330003992800009600F0A2
:101830002FFBBBB20693043B1BB207930096330009
:1018400022000799280000F023FB049B2F2B01DDC9
:10185000454B00E0424B0124059D424E3E4A103567
:101860002DB213800399230032002800009400F069
:101870000FFB2300320007992800009400F008FBBA
:10188000069B0094083B1BB2089332002300089982
:10189000280000F0FDFA049B5F2B02DC304A2E4B3F
:1018A0001A800124059D2F4F18352DB223003A00D0
:1018B00003992800009400F0EBFA23003A000799FE
:1018C0002800009400F0E4FA23003A000899280068
:1018D000009400F0DDFA069E23000C3E36B2009420
:1018E0003A003100280000F0D3FA049B9F2B02DC61
:1018F0001B4A194B1A800125059C1A4F203424B22B
:101900002B003A0003992000009500F0C1FA2B004B
:101910003A0007992000009500F0BAFA2B003A002F
:1019200008992000009500F0B3FA2B003A0031002E
:101930002000009500F0ACFA06992B0010393A000F
:1019400009B20095200000F0A3FA6A46024B928C7F
:101950001A800BB0F0BDC046080100100C6F0000EB
:101960008A520000C974000000F8FFFFF7B5002597
:101970000126012001F014F88A4B20201D7001F08F
:10198000A7F901F0D5F903F079FC874B041C1D7011
:101990003500864B1B78002B00D101E1002D00D1D2
:1019A000FEE0012D00D095E0814D002E36D00127BC
:1019B00000F046FA7F42102120202F8000F05EFACE
:1019C0007C4801F099F89921282000F057FA7A48CC
:1019D00001F092F8FC237948DB002B8001F08CF8B1
:1019E00077482F8001F088F8FC235821DB00002085
:1019F0002B8000F043FA734801F08AF8724F3800E8
:101A000001F086F8380001F083F8380001F080F822
:101A1000380001F07DF86D4801F07AF89921302006
:101A200000F02CFA01F084F9252802DC01235B4246
:101A300000E0674B2B800223664A00933021013B74
:101A4000A42000F025FA3621182000F017FA624889
:101A500001F052F84221182000F010FA01F068F964
:101A6000282801DD5D4800E05D48FC2701F044F8CE
:101A70000223FF005B4A2F8060210093A420013BDA
:101A800000F006FA6621182000F0F8F9564801F037
:101A900033F87221182000F0F1F901F049F92528F6
:101AA00002DD4B4B2B8000E02F8001F041F90A2131
:101AB00001F084F84D4801F01FF8FC23DB002B8077
:101AC00001F036F90023020076217020FFF760FE56
:101AD00002255EE7022D00D060E7FFF799FC01F0D8
:101AE00013FA002808D001F00FFA002801D10500F0
:101AF0004FE7FFF78DFCF6E701F01EFA00282CD027
:101B00008421201CC90502F053FD002807D0384964
:101B1000201C02F02FFD002808D0364909E084215E
:101B2000201CC90502F044FD002801D0324900E024
:101B30003249201C02F05EFD3149041C02F02EFDEA
:101B4000002802D0FF2001F0C3F82E49201C02F02B
:101B500025FD00281BD02B4C19E001F0E7F90028E7
:101B600000D116E72449201C03F098F98421C90507
:101B7000041C02F009FD002802D0202001F0A8F882
:101B80000021201C02F0F6FC002800D00024201CBC
:101B900003F00AFB00B201F089F800260125F8E6FF
:101BA000F7BDC04611010010D0020010CE02001097
:101BB00008010010886E0000436E00009C6E00005B
:101BC0009E6E0000A96E0000C46E0000DF6E000073
:101BD00000F8FFFF85740000FE6D0000FA6E000043
:101BE000046F0000A77400000F6F00000C6F00006E
:101BF00000000442CDCC4C3C0000A03F000020403F
:101C00000000504200007F43012210B5084B002025
:101C10001A7000F0C5FE074800F0EEFC01F0C8FFA6
:101C200001F0DEFF01F004F901F0D8FF10BDC0465D
:101C3000CE02001060620000014B18787047C04669
:101C4000CE020010F7B50024FC2725005826FF001F
:101C5000292D48D801F0BCFF234B1A689042F7D9D0
:101C60001E301860012D0BD0002D02D0022D22D085
:101C700035E01E4B28001D8000F0F0F801252EE015
:101C8000FC21E2B2C900002000F0DEFF184B194A27
:101C900018806E2351781078490840081C34181AAF
:101CA000711A00952B00A4B200F0F2F8FE2C16D9A0
:101CB0000024022513E00E4B0E4A1F806E2310787D
:101CC00051784008181A49086D3B0093711A00F0CA
:101CD000DFF83F34084BA4B29C4200D9FF25FFF740
:101CE000DDFB0028B4D0F7BDCC3A00103003001063
:101CF000080100107B6F0000FF03000010B52020DA
:101D000000F0E6FF1022034B1A80034BEF321A70EB
:101D100010BDC04652160010CD02001070B5FFF77E
:101D200073FF32220124FF25234B1A70234B1C60C2
:101D3000234B1D70FFF7E2FFFFF736FB280000255D
:101D4000FFF733FBFFF73AFBFFF73CFBFFF72EFBF8
:101D500000F08FF8FFF776FF200000F021FE194B0E
:101D60001D8000F06DF8184800F046FCFFF764FC99
:101D7000FFF7FCFD00F0C0FF280000F011FE134B40
:101D800013481C70134B1C70134B1C70134B1C70AE
:101D900000F032FC00F086FFFFF70AFB0520FFF79A
:101DA0002DFBA84203D10E4B1B78AB4202D1002081
:101DB00000F07CFF70BDC046CF020010D4020010BE
:101DC000CD02001030030010C8680000110100109F
:101DD000646500000A010010100100100C010010E1
:101DE000B402001010B5024800F018FC10BDC04647
:101DF000D10200100123812213B5074C5B420093EE
:101E00005201064B06492000FEF78CFC054A0649A4
:101E10002000FEF78DFE13BDD8020010180C000044
:101E2000241200000001001015070000031C042804
:101E300000D90423014A13707047C046F402001011
:101E400010B5002001F050F90023024A1380024A25
:101E5000138010BD280300102E03001010B501F0F0
:101E600043F910BD13B504AC2488009401F0F1FAD5
:101E700013BD10B501F09AF910BDFFFF024B188099
:101E8000024B19807047C046280300102E03001033
:101E9000F0B58FB00B9114A909780A9008911178C8
:101EA00005915178023209910092012B76D1059B60
:101EB0000733DB100C936B461B8D079304930023B1
:101EC00003936B460C21595E059B8B4200DCF0E0CE
:101ED0000723CA171A405218D21053B20A93764BEE
:101EE0000B4004D50822013B5242134301338022A8
:101EF0001BB21A416B469B8D0D92069302930023F1
:101F000001936B4604229B5E099A93423EDA0C9A37
:101F10000A995343009A5218D35C0D9A1A422DD055
:101F2000089B664C012B09D1069B0199039859180F
:101F3000079B2288181809B200B21DE06B461027D3
:101F4000DF5F6B4608269E5F22883100380001F073
:101F500065FA049B31005D1C2DB22288280001F037
:101F60005DFA029B22885E1C36B23100380001F017
:101F700055FA31002800228801F050FA019B013304
:101F80000193029B02339BB20293BAE7039B013396
:101F90000393049B02339BB2049392E7042B00D07B
:101FA00087E00023099A934200DB82E09BB2029310
:101FB0006B469B8D00250793029B079A5B00D31805
:101FC0009BB21AB201331BB204936B461B8D039272
:101FD00006930193059BAB4267DD009B384A1B7853
:101FE00012681B115B009E5A089B022B19D1069B9D
:101FF0006C001C19A4B227B20134320003993800D6
:1020000024B201F00BFA32000399200001F006FA25
:1020100032000499200001F001FA320004993800DE
:1020200007E0029B079A99186B4632000420185E5D
:1020300009B201F0F3F90F22009B1B781340204AEC
:102040005B0012689E5A089B022B1AD1069B6C00FB
:102050001C19A4B2A71C3FB2033432000399380004
:1020600024B201F0DBF932000399200001F0D6F927
:1020700032000499200001F0D1F9320004993800AF
:1020800007E0029B079A99183200019B09B2581C7D
:1020900000B201F0C3F9009B023501330093019BAC
:1020A0002DB202339BB2019394E7029B01331BB222
:1020B00078E70FB0F0BDC0460700008008010010AF
:1020C0001C030010F0B513004D4A8DB00B90106842
:1020D0000491427811000592F72208390A40511EF6
:1020E0008A410599C91052180992099902784A4300
:1020F000511C4B431A0082181279053352B20A92CE
:102100000022C31803926A46127B0A9952B2914286
:102110006BDD09991A78022903D00133089393B231
:1021200004E0991C5B7808911B02134300936B46F3
:102130009B89002506936B469B8D0793069B079A08
:102140005B00D3189BB21AB201331BB20192029307
:10215000059BAB4244DD0122009B13420ED0294B6C
:102160001B78022B07D1049B6C00E418264EA4B206
:1021700027B2328811E0244B1A8822E0234E244BE8
:1021800032881B88934225D01E4B1B78022B18D116
:10219000049B6C00E418A4B227B239000198013402
:1021A00001F03CF924B232883900029801F036F986
:1021B00032882100019801F031F93288210002981B
:1021C00006E0049B0798E918069B09B2181800B2AC
:1021D00001F024F9009B01355B0800936DB2B7E76D
:1021E000039B01330393089B8DE70020094B18568E
:1021F0000A9BC018034B1B7858430DB0F0BDC04676
:10220000240300101001001008010010300300101A
:10221000140100101101001010B5114B1888114B5A
:10222000C2B21B78012B03D1FF21002808D00CE09B
:10223000022B05D101331A4011009300194302E02B
:102240000F231A4011000B011943074B074A186866
:1022500001F06AFF0023064A1380064A138010BD6E
:10226000220300100B010010F00200101F130000E9
:10227000280300102E030010064B10B51968064BFA
:10228000186801F00DF9054B1B78002B01D1FFF701
:10229000C3FF10BD1C030010F00200101803001053
:1022A00010B5024800F0BAFC10BDC046666D0000D3
:1022B000124B70B51B8893421ED0114B86B21C780E
:1022C000B44219D90F4B89B21B788B4214D9130031
:1022D0000F2564104C430C4A40101168201880B23E
:1022E00008182B400278F10702D5AA431A4302E0EE
:1022F00015401A012A43027070BDC0461401001037
:102300001201001016010010F0020010F0B51300C9
:10231000274A87B00490106805914778F722390062
:1023200008390A40511E8A41F91052180292029946
:1023300002784A43511C4B431A0082181279053324
:1023400052B203926A46158AC318049A0399AA1ACC
:1023500052B2914224DD029A1C78022A03D0013342
:102360000193A4B204E09A1C5B7801921B021C4307
:102370000026B74210DB059B28B2F11801231C424E
:1023800001D00C4B00E00C4B1A7809B20136FFF774
:102390008FFF640876B2ECE70135ADB2019BD4E75C
:1023A0000020064B1856039BC01807B0F0BDC0466E
:1023B000240300100E010010220300101101001070
:1023C00010B5114B84B21B78A3421CD90F4A89B2B5
:1023D00012788A4217D95B104B43401018180C4BE7
:1023E00080B219680F22081801780A4BE40704D557
:1023F00091431C780B00234304E01B880A401B0117
:102400001A43D3B2037010BD120100101601001060
:10241000F00200100E01001070B50F4B15001B7874
:102420008AB20600934202D8AAB2934212D90B4B49
:102430001A78B3B29A420DD9A94202DD0B002900E5
:102440001D000C00A54205DB21B23000FFF7B8FFEC
:102450000134F7E770BDC0461601001012010010EC
:10246000F8B58218CB1805000C0012B21BB2002878
:1024700001DA002A2DDB174909788D4201DB9142F0
:1024800027DD002C01DA002B23DB134909788C426D
:1024900001DB99421DDD954202DC11002A000D008E
:1024A0009C4202DC190023000C00161C002A00DAF2
:1024B000002636B2191C002B00DA00210FB2AE4202
:1024C00007DA3000220039000136FFF7A5FF36B2E7
:1024D000F5E7F8BD1201001016010010F0B587B045
:1024E000002878D03D4B1B78984201DB581E00B283
:1024F0003B4A1478042C07D13A4A11784143CA0F59
:102500005118491089B20AE0022C64D10321354ADE
:1025100012784243D51729408A18921091B2324A54
:1025200015880195314D2D8815802E4A00282DDD06
:102530001278181AD5086C430294002425000490E0
:10254000049884421BDA2800491B89B203916F4624
:10255000461BFE82FE8A0399B446029E411889B248
:10256000B44508DA461CB446214E715C31546146CC
:10257000F982F88AEBE70134A4B20500E0E71D49CF
:102580001BB20020095E12B200201EE012789BB23E
:102590005443174FE41085B202940393039BAB425C
:1025A0000FD90C00661A029BB6B29E4205DA661C71
:1025B000B6B2BB5D3B553400F4E70135ADB2210046
:1025C000ECE700210300080012B2FFF749FF6A465A
:1025D000054B92881A8007B0F0BDC0461601001066
:1025E0000B010010120100100E0100102203001058
:1025F000320300102E030010054B064A18600378C2
:10260000013313704378044A013313707047C04696
:102610002403001021030010200300100E4A0F4B6A
:1026200010B504001A60FFF73BFE01220C4B0D4869
:102630001A700D4BDB321A800C4B2C3A1A80FFF7C4
:10264000DBFF11220A4B20001A800022094B1A805E
:10265000094B04321A7010BD32030010F002001052
:102660002D03001060620000F60200102A03001023
:102670001401001022030010F4020010F0B58BB01A
:10268000019151781600019A4B4207009A4200DAF4
:1026900059E1AE4B1878824200DD54E13278534262
:1026A0009F4200DA4FE1AA4B1B789F4200DD4AE1CE
:1026B000A84D14B22D7802940CB20494B41C012DD0
:1026C00027D800250732D3100093029A2BB29342E9
:1026D00000DB38E1DA1003920722134079321A4105
:1026E00000260592049A33B2934210DA009A5343BB
:1026F000039AA218D35C059A1A4206D0019B781956
:10270000991909B200B2FFF75BFE0136EAE701351D
:10271000DBE7032D3AD8002593100593029B2CB2DA
:102720009C4200DB0FE1032323405B000393C023A3
:10273000039AA410134102345BB2069333190024A8
:102740000093049A23B29A421EDD009B069A1B78DE
:10275000039913400622521A13417F4A11889AB2F4
:1027600091420AD00F2213407C4A78191380019BB2
:1027700000B2191909B2FFF723FE059A009B94468F
:10278000634401340093DCE70135C7E7019D019EF6
:102790004D19002E08DA300029B204915110484337
:1027A0000021241A019106E0A84204DA019D401B91
:1027B000411809B20491002F0FDAB9B28A1812B287
:1027C000022002927A4200274D005210054011B2B9
:1027D00003950591A418069716E0BA1893420FDAEC
:1027E00002207900014003910121D21A3940521090
:1027F000521812B20592DA1B12B20691029203E04D
:102800000022069205920392019A5B1053430792AD
:102810007A109B18524A1268D31801223A40099242
:102820000F22944600930799049A521801999142F5
:1028300000DB88E0454A1278914200DB83E0099A88
:10284000002A07D0029A0398D219121A3900089266
:10285000414E64E03800029A0399D219521A089244
:10286000089A904224DA03992278002904D06178EA
:10287000120109110A43D2B2374D009B2D881978F5
:102880001611AE4205D066466346314016009E439F
:10289000314363461A40954202D099431143C9B26D
:1028A000009B0230197001330134009300B2D7E766
:1028B000039B002B36D00122029B13420BD06046B3
:1028C0002549227809881040884204D0009B1201D3
:1028D00019780A431A70009B01340133009321E0F8
:1028E000009B22781878338815119D4202D06346E8
:1028F000984328436546009B1540187001330093A8
:102900001878154B1B889D4204D06346120118406D
:102910001043C0B2009B02311870013409B2089B09
:102920009942DDDB059B0A4AE4181278029BD21A11
:10293000069B5210D218009B9B18019A00930132FB
:1029400013B201936FE70BB0F0BDC0461601001043
:1029500012010010F4020010140100100E0100100A
:10296000F002001010B5084B09B21B6800B29B784A
:10297000D21A064BD2B21B78002B02D0FFF7A2FB73
:1029800001E0FFF7C3FC10BD240300102D0300106D
:10299000024B1878431E9841C0B270472D030010B7
:1029A00009490A4A0A4B002805D001200870DC2199
:1029B0001180B02205E00870064909781180064AA6
:1029C00012781A807047C0462D030010F6020010DE
:1029D0002A030010120100101601001010B50B4C54
:1029E0000B490023E25E0B4B09881B685B7858009B
:1029F000091A0948007840B28A4203DDC018FFF77F
:102A00006DFD02E0C3189B18238010BD2E0300103B
:102A10002A030010240300100A01001070B52B4B8C
:102A200004001A68D378002B03D0602801D9203C19
:102A3000E4B20E2C21D8200001F0CCFB461F1F1F52
:102A40001F1F1F1F0E1F081F1F1B46000022204BA9
:102A50001A80FFF7C3FF37E01D4910780B8820224A
:102A6000181A1C4B80B208801978C0B2FFF77AFFA1
:102A70002AE00022164B1A8026E0154D127800231A
:102A8000E85E154B1B889B1A98420BDB00232B80BA
:102A9000124B1B78002B17D0FFF7A0FF0D4B2878A7
:102AA000197802E00B4BC0B219782200FFF75AFFE9
:102AB000202C06D10A4B1B785BB2002B01D04010B2
:102AC00001302B881818288070BDC04624030010E0
:102AD000280300102E030010F60200100C01001055
:102AE0001101001010B504002078002803D0013433
:102AF000FFF794FFF8E710BD10B5FFF7F3FF10BD27
:102B000010B50D20FFF78AFF0A20FFF787FF10BDE1
:102B100010B5FFF7E7FFFFF7F3FF10BD024B18807A
:102B2000024B19807047C046280300102E03001086
:102B30000023F0B5050089B00E00984203D1302083
:102B4000FFF76CFF1CE05C1C28006B4431001F0089
:102B500001F0D0FB28003970310001F045FB230063
:102B6000051EF0D16B46013C1B5D18003730C0B22A
:102B7000092B01D83033D8B2FFF750FF002CF1D128
:102B800009B0F0BD10B5041E03DA2D20FFF746FF93
:102B900064420A212000FFF7CBFF10BD10B50029C9
:102BA00003D1C0B2FFF73AFF07E00A2902D1FFF7CD
:102BB000E9FF02E0C9B2FFF7BBFF10BD10B5FFF798
:102BC000EDFF10BD10B5044C2080044801801900B1
:102BD0001000FFF7E3FF10BD280300102E030010C4
:102BE00010B50248FEF7E8FC10BDC0462C030010EB
:102BF0000023044AC15AD1520233202BFAD1024B8E
:102C00001A607047F80200101C0300108910490177
:102C1000D210C0100A43C0021043704770B50400C0
:102C20000025074EA27861782078FFF7EFFF6B0050
:102C30000135F0520334102DF4D1024B1E6070BDEB
:102C4000F80200101C03001070B51F240500254079
:102C50000C40641B23B253431B12EB183F25441155
:102C60004E112C40C00A3540C9122D1B091A55437C
:102C70004A4312122D1280181BB26419021C00283C
:102C800000DA002212B2D202181C002B00DA002057
:102C90001043231C002C00DA00231BB25B011843F5
:102CA00080B270BD10B500F0F1FE10BD031C00280D
:102CB00000DA0023044A1BB21288934200DD13B2EB
:102CC000024A13807047C0461801001052160010C7
:102CD00010B5002803DBFF2802DDFF2000E0002004
:102CE000034B1880034B0020185EFFF7DFFF10BD79
:102CF0001801001052160010054B10B51888202836
:102D000001D9103000E0083000B2FFF7CFFF10BD4E
:102D100052160010054B10B51888202801D920380C
:102D200000E0083800B2FFF7C1FF10BD52160010D6
:102D3000014B18887047C046521600107047FFFFBD
:102D4000044B10B51B68181E02D000F0C3FE012012
:102D500010BDC046B418001010B50248FEF72CFC98
:102D600010BDC046511600100122014B1A71704768
:102D7000E81700100022014B1A717047E817001085
:102D80000122014B5A717047E81700100022014BD5
:102D90005A717047E81700100122014B9A71704771
:102DA000E81700100022014B9A717047E8170010D5
:102DB0000122014B5A707047E81700100022014BA6
:102DC0005A707047E81700100122014BDA70704703
:102DD000E81700100022014BDA707047E817001066
:102DE0000022014B9A707047E81700100022014B37
:102DF0001A707047E817001010B5054B9A79002A31
:102E000002D0FFF779FF01E001229A7010BDC046A1
:102E1000E817001010B5054B9A79002A02D0FFF789
:102E200079FF01E001221A7010BDC046E8170010BA
:102E300010B5204C20492000FDF7EFFB20001F4972
:102E4000FDF7DCFB1E4C1F492000FDF7E6FB2000D0
:102E50001D49FDF7D3FB1D4C1D492000FDF7DDFB8F
:102E600020001C49FDF7CAFB1B4C1C492000FDF744
:102E7000D4FB20001A49FDF7C1FB1A4C1A49200067
:102E8000FDF7CBFB20001949FDF7B8FB184C194999
:102E90002000FDF7C2FB20001749FDF7AFFB174CE0
:102EA00017492000FDF7B9FB16492000FDF7A6FBE6
:102EB00010BDC046F0170010752D0000692D0000F0
:102EC000401800108D2D0000812D000054160010B8
:102ED000A52D0000992D000098170010BD2D0000B1
:102EE000B12D0000A4160010D52D0000C92D000042
:102EF000F8160010ED2D0000152E000048170010E8
:102F0000E12D0000F92D0000014B18797047C046F3
:102F1000E8170010014B58797047C046E8170010B9
:102F2000014B98797047C046E8170010014B18789C
:102F30007047C046E8170010014B98787047C046AC
:102F4000E817001070B52648FFF768FB254E2649A4
:102F50003000FDF72FFB254D254C2A0021003000C5
:102F6000FDF7E6FD234E24493000FDF723FB2A0040
:102F700021003000FDF7DCFD204E21493000FDF737
:102F800019FB2A0021003000FDF7D2FD1D4E1E491D
:102F90003000FDF70FFB2A0021003000FDF7C8FDCF
:102FA0001A4E1B493000FDF705FB2A0021003000B6
:102FB000FDF7BEFD174E18493000FDF7FBFA2A0059
:102FC00021003000FDF7B4FD144E15493000FDF727
:102FD000F1FA2A0030002100FDF7AAFD70BDC046BD
:102FE000F4160010F0170010841201000001001008
:102FF00089050000401800107008010054160010E8
:103000008814010098170010941A0100A4160010EB
:103010006C060100F8160010C432010048170010B9
:103020007C0E0100074B1A8882420AD01880A02328
:10303000054A06491B0699500549C0005850002111
:103040009950704790180010882000000700F8FF82
:103050008821000070B58A23A024042224069B0145
:10306000E2508023064D5B046351FFF7DBFF8023B2
:10307000044A5B01A350C046C046635170BDC046C0
:10308000042200008422000070B58823A0240422BA
:1030900024069B01E2508023064D5B046351FFF739
:1030A000C1FF8023044A5B01A350C046C046635160
:1030B00070BDC046042200008422000010B5074CF9
:1030C00007492000FDF74EFF20000521FDF729FFED
:1030D00004492000FDF702FF10BDC04694180010FF
:1030E000FC0402009A99993E10B504002020FFF7D5
:1030F000B1FF0020FFF7C8FF2120FFF7ABFF002042
:10310000FFF7C2FF2220FFF7A5FF2000FFF78AFF8D
:10311000A023882204211B06920199508021084A8D
:1031200049049950802107484901074C9950195189
:10313000C046C046013899500028F8D110BDC0469D
:1031400004220000409700008422000010B52020D7
:10315000FFF780FF0020FFF797FF2120FFF77AFF9E
:103160000020FFF791FF2220FFF774FF0020FFF7F8
:1031700059FFA023882204211B0692019950802127
:10318000074A49049950802106484901064C995044
:103190001951C046C046013899500028F8D110BDD9
:1031A00004220000409700008422000070B5A02592
:1031B0000124784E2D06FFF781FFAC510A20FDF760
:1031C000ECFB754B0A20EC50FDF7E7FBAC510A20F5
:1031D000FDF7E3FB2000FFF73DFF8E204000FFF7E7
:1031E00053FF0220FFF736FF80204000FFF74CFF1F
:1031F0000320FFF72FFF6948FFF746FF0820FFF77E
:1032000029FF6748FFF740FF0C20FFF723FF00204E
:10321000FFF73AFF0F20FFF71DFF2000FFF734FFF5
:103220002020FFF717FF0020FFF72EFF2120FFF7D8
:1032300011FF0020FFF728FF1020FFF70BFF0020F1
:10324000FFF722FF1120FFF705FF80204001FFF765
:103250001BFF0A20FDF7A1FB3020FFF7FBFE00203B
:10326000FFF712FF3120FFF7F5FEDB20FFF70CFF21
:103270003220FFF7EFFE0020FFF706FF3320FFF7B5
:10328000E9FE0020FFF700FF3420FFF7E3FEDB201C
:10329000FFF7FAFE3520FFF7DDFE0020FFF7F4FE12
:1032A0003620FFF7D7FEAF20FFF7EEFE3720FFF7FF
:1032B000D1FE0020FFF7E8FE3820FFF7CBFEDB2031
:1032C000FFF7E2FE3920FFF7C5FE0020FFF7DCFE26
:1032D0000A20FDF762FBFF20FFF7BCFE0320FFF78B
:1032E000D3FE5020FFF7B6FE2E48FFF7CDFE51204B
:1032F000FFF7B0FE2C48FFF7C7FE5220FFF7AAFEEB
:103300002A4D0520FFF7C0FE5320FFF7A3FE28003B
:10331000FFF7BAFE5420FFF79DFE2548FFF7B4FEE5
:103320005520FFF797FE234C0320FFF7ADFE5620F4
:10333000FFF790FE2000FFF7A7FE5720FFF78AFE59
:103340001D48FFF7A1FE5820FFF784FE2800FFF775
:103350009BFE5920FFF77EFE2000FFF795FEB02070
:10336000FFF778FE1548FFF78FFEFF20FFF772FE8C
:103370000020FFF789FE0720FFF76CFE1048FFF7DB
:1033800083FEC820FDF709FB2220FFF763FEFFF74D
:10339000DDFE70BD04220000842200003010000019
:1033A0000808000003020000090A000021100000C4
:1033B00002060000030700000705000001250000C9
:1033C00017100000F8B5050017000C001E00ADB284
:1033D0003720FFF73FFE2800FFF756FE3620FFF7A5
:1033E00039FEB8B2FFF750FEA4B23920FFF732FE23
:1033F0002000FFF749FE3820FFF72CFEB0B2FFF7A0
:1034000043FE2020FFF726FE2800FFF73DFE212087
:10341000FFF720FE2000FFF737FEF8BD70B584B23D
:103420001600DB2C14D88DB2AF2D11D82020FFF759
:1034300011FE2800FFF728FE2120FFF70BFE2000D9
:10344000FFF722FE2220FFF705FE3000FFF71CFEEB
:1034500070BDF7B51C0008AB1B8807000E001500F7
:103460000193824201DC451C2DB2B44201DC741C84
:1034700024B26B1E621EDBB2D2B2F9B2F0B2FFF719
:10348000A1FF2220FFF7E6FDED1BA41B6C43002CDF
:1034900004D00198FFF7F8FD013CF8E7F7BDFFFF06
:1034A000F0B5DFB0059020200491FFF7D3FD002098
:1034B000FFF7EAFD2120FFF7CDFD0020FFF7E4FD37
:1034C0002220FFF7C7FDA0248823042224069B01A5
:1034D000E2508023B44E5B048025A35100236D018C
:1034E000A5510393039B00225910059B59180F23E4
:1034F0009C460B78049F18114000C05B06AFD05368
:10350000674610003B40049F5B00DB5BB03006AFBA
:1035100002323B523731B02AEBD10223DB1901933F
:103520000293029BA14F023B1888FFF77BFDE551F8
:10353000C046C046A551E551C046C046029BA551B4
:103540001888FFF76FFDE551C046C046A551E5510B
:10355000C046C046029BA5515888FFF763FDE55160
:10356000C046C046A551E551C046C046029BA55184
:103570009888FFF757FDE551C046C046A551E55173
:10358000C046C046029BA551D888FFF74BFDE551C8
:10359000C046C046A551E551C046C046029BA55154
:1035A0001889FFF73FFDE551C046C046A551E551DA
:1035B000C046C046029BA5515889FFF733FDE5512F
:1035C000C046C046A551E551C046C046029BA55124
:1035D0009889FFF727FDE551C046C046A551E55142
:1035E000C046C046029BA55110330293B22306AADF
:1035F0009B18029A934200D093E7019B023B1888E4
:10360000FFF710FDE551C046C046A551E551C04643
:10361000C046019BA5511888FFF704FDE551C0463F
:10362000C046A551E551C046C046019BA5515888EA
:10363000FFF7F8FCE551C046C046A551E551C0462C
:10364000C046019BA5519888FFF7ECFCE551C046A8
:10365000C046A551E551C046C046019BA551D8883A
:10366000FFF7E0FCE551C046C046A551E551C04614
:10367000C046019BA5511889FFF7D4FCE551C0460F
:10368000C046A551E551C046C046019BA551588989
:10369000FFF7C8FCE551C046C046A551E551C046FC
:1036A000C046019BA5519889FFF7BCFCE551C04677
:1036B000C046A551E551C046C046019BA5511033F7
:1036C0000193B22306AA9B18019A934200D094E773
:1036D00032AB01930293029B1888FFF7A3FCE551DC
:1036E000C046C046A551E551C046C046029BA55103
:1036F0005888FFF797FCE551C046C046A551E551F3
:10370000C046C046029BA5519888FFF78BFCE55147
:10371000C046C046A551E551C046C046029BA551D2
:10372000D888FFF77FFCE551C046C046A551E5515A
:10373000C046C046029BA5511889FFF773FCE551AE
:10374000C046C046A551E551C046C046029BA551A2
:103750005889FFF767FCE551C046C046A551E551C1
:10376000C046C046029BA5519889FFF75BFCE55116
:10377000C046C046A551E551C046C046029BA55172
:10378000D889FFF74FFCE551C046C046A551E55129
:10379000C046C046029BA55110330293029A5EAB0D
:1037A000934200D097E703E0042200008422000047
:1037B000019B1888FFF736FCE551C046C046A5516D
:1037C000E551C046C046019BA5515888FFF72AFC29
:1037D000E551C046C046A551E551C046C046019BD3
:1037E000A5519888FFF71EFCE551C046C046A5517B
:1037F000E551C046C046019BA551D888FFF712FC91
:10380000E551C046C046A551E551C046C046019BA2
:10381000A5511889FFF706FCE551C046C046A551E1
:10382000E551C046C046019BA5515889FFF7FAFBF8
:10383000E551C046C046A551E551C046C046019B72
:10384000A5519889FFF7EEFBE551C046C046A5514A
:10385000E551C046C046019BA551D889FFF7E2FB60
:10386000E551C046C046A551E551C046C046019B42
:10387000A55110330193019A5EAB934200D097E7B4
:10388000039B023303936E2B00D02BE65FB0F0BD99
:1038900070B504000D001822002100F045FC29003D
:1038A0002000FCF76CFE200070BDFFFF7F2381210C
:1038B00010B50A4C8EB018402070094A09016846BC
:1038C00000F0D0FA22785E21684600F016FB2478DA
:1038D000684600F011FB20000EB010BDA53A0010A4
:1038E000140A0000002210B5044B10201A70044B7B
:1038F00001321A70FFF7DAFF10BDC046A53A00107A
:10390000AA3A0010A0228021030012064905D80718
:1039100001D5284800E028481150A02280215B10E2
:1039200012068905D80701D5224800E02248115027
:10393000A02280215B101206C905D80701D51D48B9
:1039400000E01D481150A02280215B1012060906DC
:10395000D80701D5174800E017481150A022802150
:103960005B1012064903D80701D5144800E014483B
:103970001150A02280215B1012068903D80701D5BF
:103980000E4800E00E481150A02280215B10120664
:10399000C903D80701D5094800E009481150802122
:1039A0005B100904002B01D0044B00E0044BD15004
:1039B0007047C04604220000842200000822000054
:1039C0008822000070B5244B00241A78012313408C
:1039D000224A234D1370A34228D000262149224AAF
:1039E0000B68581C08601B789657DBB2A64203D0C0
:1039F0000322921B1341DCB21C4A2C7013689842BC
:103A000011D31B4B1868013018601868042801D1C5
:103A1000002018601B681748DB02C3180B60802168
:103A200009015B1813602878FFF76CFF200001F094
:103A300025FC114900F054FF011C1048FDF74EFA17
:103A40002B780F4A1C190F4B64101C801378591CDB
:103A500011700D4AD45470BD581A0010A63A0010C7
:103A6000A41A0010B41800101A010010D019001088
:103A7000EC190010A51A001000007F43501A001026
:103A8000C43A0010A83A0010B818001010B50C4C39
:103A90000C492000FDF766FA20001F21FDF741FACE
:103AA00020000949FDF71AFA0848094B5A21836199
:103AB0000023C362FCF7AFFEFFF714FF10BDC04642
:103AC000501A001040270200CDCCCC3D741A0010D3
:103AD000C53900000122014B1A707047581A0010B6
:103AE00010B5194C2000FCF711FF184B184A236041
:103AF00000231849A361E3622000FDF719F8164975
:103B00001648FFF7C5FE16491648FFF7C1FE1649CD
:103B10001648FFF7BDFE16491648FFF7B9FE1649CD
:103B20001648FFF7B5FE16491648FFF7B1FE1649CD
:103B30001648FFF7ADFE16491648FFF7A9FE1649CD
:103B40001648FFF7A5FE10BD741A0010105F0000A4
:103B500000010010E9070000D0380100B81900107A
:103B6000D43A0100AC3A0010D83C0100D41900103E
:103B7000DC3E01009C18001044290200F0190010DE
:103B8000482B0200081A00104C2D0200201A0010C9
:103B9000502F0200381A0010A42201005C1A0010F5
:103BA000024A13680A3313607047C046C83A0010CF
:103BB000044B054A07215A6000229A601960034BA2
:103BC0001A60704710E000E0FF520700C83A00108A
:103BD000014B18687047C046C83A00107047FFFF95
:103BE000A023802104201B0689015A5810B50243E6
:103BF00080205A50294A4001995801438020995009
:103C00009958400401430120995099580143995013
:103C1000234924485A5802435A5023480021FDF7AB
:103C20002FF900212148FDF72BF900212048FDF74D
:103C300027F900211F48FDF723F900211E48FDF751
:103C40001FF900211D48FDF71BF900211C48FDF755
:103C500017F900211B48FDF713F900211A48FDF759
:103C60000FF900211948FDF70BF900211848FDF75D
:103C700007F900211748FDF703F900211648FDF761
:103C8000FFF800211548FDF7FBF800211448FDF767
:103C9000F7F800211348FDF7F3F810BD04200000E9
:103CA00008200000F8FF07000007020004090200D6
:103CB000080B02000C0D0200100F0200141102008C
:103CC000181302001C15020020170200241902001C
:103CD000281B02002C1D0200301F020034210200AC
:103CE000382302003C250200036870B504000D0073
:103CF000013304D1242206490648FCF7BFFB636860
:103D0000002D01D0E26800E02269136070BDC0465A
:103D1000DC5C00002B5D0000036810B5040001337B
:103D200004D12C2205490648FCF7A8FB63696068AA
:103D30001B681840431E984110BDC046DC5C000063
:103D40002B5D000010B50121FCF76AFF10BD70B5B6
:103D500004002500FFF7F6FF1835606BFCF712FE34
:103D600028000121FFF7C0FF01212000FFF7BCFF61
:103D7000606BFCF707FE00212000FFF7B5FF606BCA
:103D8000FCF700FE28000021FFF7AEFF606BFCF798
:103D9000F9FD70BD10B50400FFF7D4FF606BFCF7B0
:103DA000F1FD00212000FFF79FFF606BFCF7EAFDAB
:103DB000200001211830FFF797FF606BFCF7E2FD50
:103DC00001212000FFF790FF10BDF8B504000F009F
:103DD0000825FFF7B7FF606BFCF7D4FD0121013D1B
:103DE000A9402600394020001836FFF77DFF012149
:103DF0003000FFF779FF606BFCF7C4FD0021300055
:103E0000FFF772FF002DE6D101212000FFF76CFFC4
:103E1000F8BD70B504002500FFF794FF18350121A7
:103E20002000FFF761FF01212800FFF75DFF00215F
:103E30002000FCF7F5FE04212000FCF7EBFE606B90
:103E4000FCF7A0FD00212800FFF74EFF2000FFF740
:103E500063FF0023984203D1606BFCF793FD0123BD
:103E6000180070BDF8B5182604000D0017000021D9
:103E7000320000F059F929002000A519FCF765FB74
:103E800032002800002100F04FF939002800FCF72B
:103E90005CFB2800FFF756FF28000421FCF7BAFE60
:103EA0002000FFF74FFF04212000FCF7B3FE2300A2
:103EB0000026012730331E7028006763FFF742FF9A
:103EC0002000FFF73FFF39002000FFF70DFF310012
:103ED0002800FFF709FF606BFCF754FD2000FFF797
:103EE00059FF2000FFF756FF2000FFF753FF200087
:103EF000FFF750FF2000F8BD704770B50D001600A9
:103F00000400FFF724FF0123290020009943FFF755
:103F10005CFF2000FFF77DFF31002000FFF755FF19
:103F20002000FFF776FF2000FFF734FF70BDFFFF92
:103F300010B5064B0648197800F0E0F9054B1860FB
:103F400039235843044B188010BDC0461B01001094
:103F5000983A0000D43A0010D03A001010B5024848
:103F6000FDF72AFB10BDC046D83A0010454AF8B507
:103F7000564692464B005B0D9A444D465F4644467A
:103F80005246F0B4894605000C000E000700132AC3
:103F900022DC002A47DB52463B4B134198460B007C
:103FA00042461340034311D0384A394B01F0A4F97B
:103FB0000022002300F0B8FA002805D0002C41DBD5
:103FC0004E46434600279E43380031003CBC904695
:103FD0009946A246AB46F8BD5246332A08DD8023F7
:103FE000DB009A45F2D102000B0001F085F9EDE704
:103FF000284A9446012263445242DA4093460242E0
:10400000E4D0224A224B01F077F90022002300F08D
:104010008BFA0028D8D0002C1ADB5B464E469F4313
:1040200038003100D2E7194A194B01F065F9002236
:10403000002300F079FA0028C6D0002C16DB0027F8
:104040000026C1E7802352465B0313419944B7E73A
:104050005346142B12D03423524601279B1A9F40FB
:104060007F19AF429B415B429944D6E764006408E4
:1040700025430027002DA7D0074EA5E7133B9C46FC
:10408000E144CAE701FCFFFFFFFF0F009C750088B9
:104090003CE4377EEDFBFFFF0000F0BF084B10B59E
:1040A0000400002B02D0002100E000BF054B18687F
:1040B000836A002B00D098472000FCF725FBC04600
:1040C00000000000307500000E4B70B500251E008A
:1040D0000D4CE41AA410A54204D0AB00F358984745
:1040E0000135F8E703F086FA084B00251E00084C5E
:1040F000E41AA410A54204D0AB00F3589847013548
:10410000F8E770BD00760000007600000076000041
:104110002C76000010B5034B0100186800F00CF875
:1041200010BDC0467C01001003008218934202D0EB
:1041300019700133FAE7704770B50500002944D0C3
:104140000C1F2368002B00DAE418280000F040F868
:104150001E4A13681100002B02D16360146031E025
:10416000A3420DD92268A018834203D118685B6866
:104170008218226063600C6024E0A24203D813001E
:104180005A68002AF9D11E689819A0420BD12168FB
:10419000711858181960824214D110685268411879
:1041A00019605A600EE0A04202D90C232B6009E08E
:1041B00021686018824203D110685268411821605A
:1041C00062605C60280000F004F870BDDC3A00100A
:1041D0007047704702B4714649084900095C4900BC
:1041E0008E4402BC7047C046002243088B4274D301
:1041F00003098B425FD3030A8B4244D3030B8B42E8
:1042000028D3030C8B420DD3FF22090212BA030CF0
:104210008B4202D31212090265D0030B8B4219D3D1
:1042200000E0090AC30B8B4201D3CB03C01A5241F1
:10423000830B8B4201D38B03C01A5241430B8B4239
:1042400001D34B03C01A5241030B8B4201D30B0322
:10425000C01A5241C30A8B4201D3CB02C01A524149
:10426000830A8B4201D38B02C01A5241430A8B420C
:1042700001D34B02C01A5241030A8B4201D30B02F5
:10428000C01A5241CDD2C3098B4201D3CB01C01A0F
:10429000524183098B4201D38B01C01A5241430919
:1042A0008B4201D34B01C01A524103098B4201D307
:1042B0000B01C01A5241C3088B4201D3CB00C01A74
:1042C000524183088B4201D38B00C01A52414308EC
:1042D0008B4201D34B00C01A5241411A00D2014611
:1042E000524110467047FFE701B5002000F0F0F89A
:1042F00002BDC0460029F7D076E7704703460B435E
:104300007FD4002243088B4274D303098B425FD3CE
:10431000030A8B4244D3030B8B4228D3030C8B42FA
:104320000DD3FF22090212BA030C8B4202D31212E0
:10433000090265D0030B8B4219D300E0090AC30BB5
:104340008B4201D3CB03C01A5241830B8B4201D362
:104350008B03C01A5241430B8B4201D34B03C01A4B
:104360005241030B8B4201D30B03C01A5241C30AC3
:104370008B4201D3CB02C01A5241830A8B4201D334
:104380008B02C01A5241430A8B4201D34B02C01A1E
:104390005241030A8B4201D30B02C01A5241CDD2C3
:1043A000C3098B4201D3CB01C01A524183098B420E
:1043B00001D38B01C01A524143098B4201D34B01F7
:1043C000C01A524103098B4201D30B01C01A52415A
:1043D000C3088B4201D3CB00C01A524183088B42E1
:1043E00001D38B00C01A524143088B4201D34B00CA
:1043F000C01A5241411A00D201465241104670473C
:104400005DE0CA0F00D04942031000D34042534040
:1044100000229C4603098B422DD3030A8B4212D300
:10442000FC22890112BA030A8B420CD38901921132
:104430008B4208D3890192118B4204D389013AD06F
:10444000921100E08909C3098B4201D3CB01C01A44
:10445000524183098B4201D38B01C01A5241430957
:104460008B4201D34B01C01A524103098B4201D345
:104470000B01C01A5241C3088B4201D3CB00C01AB2
:10448000524183088B4201D38B00C01A5241D9D2CA
:1044900043088B4201D34B00C01A5241411A00D24B
:1044A0000146634652415B10104601D34042002B47
:1044B00000D54942704763465B1000D3404201B5C6
:1044C000002000F005F802BD0029F8D016E770477B
:1044D0007047C0468446101C62468C46191C6346D1
:1044E00000E0C0461FB501F0D7FA002801D4002132
:1044F000C8421FBD10B501F02BFA4042013010BD7B
:1045000010B501F0C9FA002801DB002010BD012020
:1045100010BDC04610B501F0BFFA002801DD002033
:1045200010BD012010BDC04610B501F051FA0028A1
:1045300001DC002010BD012010BDC04610B501F007
:1045400047FA002801DA002010BD012010BDC04646
:104550008446081C6146FFE71FB500F047FB0028B2
:1045600001D40021C8421FBD10B500F0D3FA40426B
:10457000013010BD10B500F039FB002801DB002030
:1045800010BD012010BDC04610B500F02FFB002863
:1045900001DD002010BD012010BDC04610B500F0A7
:1045A000E1FA002801DC002010BD012010BDC0464A
:1045B00010B500F0D7FA002801DA002010BD012064
:1045C00010BDC0469E2110B5C905041CFFF7F0FFC1
:1045D000002803D1201C00F0E7FD10BD9E21201C07
:1045E000C90500F05BFC00F0DFFD80231B069C4644
:1045F0006044F2E7F8B54A02430244004E00C50F9A
:10460000240E28009B09360EC90F92098D4259D0FD
:10461000A01B002800DC8DE0002E1AD1002A00D05B
:1046200079E05A0704D00F221A40042A00D004333C
:104630005A0138D50134FF2C00D189E028009B01B4
:104640005B0AE4B25B02E4055B0A2343C00718433C
:10465000F8BDFF2CE5D08021C9040A431B2800DDEA
:1046600089E016002021C640081A8240511E8A4166
:1046700032439B1A5A0114D59B019E09300001F068
:10468000FFFA05388640844265DC041B3300202095
:104690000134E340041BA640721E964100243343BC
:1046A000BFE75A07BFD1DF082800FF2C2FD1002F0A
:1046B00000D187E08022D20313003B435B025B0AF8
:1046C000FF24BFE7A11B002949DD002E29D0FF2CC4
:1046D000A7D08026F60432431B2900DD8DE01700A9
:1046E0002026CF40711A8A40511E8A413A439B18B6
:1046F0005A01D6D50134FF2C64D0012276491A40E4
:104700005B080B4013438CE7031ECAD100207B02D9
:104710005B0AE4B296E701380028AAD0FF2C9DD1AD
:104720007FE7002A00D17CE701390029DFD0FF2C88
:10473000D2D176E7002820D1601CC0B2012853DD19
:1047400080279E1AFF0437402FD0D61A0D0095E718
:104750002800002376E7614B241A334061E70029E3
:104760004DD1611CCEB2012E2FDDFF292AD09B181E
:104770005B080C0055E701227BE7002C1BD1002BC6
:104780005BD0C04300280CD0FF2E7ED01B2800DD5C
:1047900092E01D002024C540201A8340581E83410A
:1047A0002B43D31A34000D0064E7002E00D065E7D8
:1047B00000200024ABE7FF2E67D08024E4044042B1
:1047C0002343E3E7FF2400233CE7002C61D1002BC7
:1047D0007ED0002A00D124E79B185A0100D460E75C
:1047E0003E4A0C0013401CE7002C1ED1002B2FD199
:1047F000002A66D013000D0013E7012277E7002C92
:104800001FD1002B5AD0C94300290BD0FF2E50D006
:104810001B295FDC1F002024CF40611A8B40591EEA
:104820008B413B439B18340062E7002B1CD1002ACC
:104830004AD013000D00FF24F3E6130034000D00EE
:10484000EFE6FF2E35D08024E40449422343DFE71E
:10485000002A00D1E5E68027981AFF04074000D11E
:1048600052E7D31A0D00DCE6FF24002A00D1D8E677
:104870008020DB08C003034204D0D208024201D1E9
:1048800013000D00DB00FF24CBE61300FF240D0016
:10489000C7E6002B0DD0FF24002A00D1C1E68021FD
:1048A000DB08C9030B42EDD0D2080A42EAD113005B
:1048B000E8E71300FF24B4E6012372E71300340095
:1048C000AFE60027002022E780270020FF03F1E663
:1048D0001300A6E60123A5E7FFFFFF7DFFFFFFFB17
:1048E000F0B5564644465F464D46F0B44402460095
:1048F000C70F83B08846650A360EBA463DD0FF2EF4
:1049000022D00023EC00802599469B46ED042543E8
:104910007F3E43465C025800DB0F640A000E984657
:1049200036D0FF2830D080230021E400DB041C4374
:104930007F38301A0190484642460843724E800044
:1049400030587A4013008746002D44D108239946F9
:10495000063B9B46DDE70122FF2000241A4064024B
:10496000C305640AD2071C431443200003B03CBCB7
:1049700090469946A246AB46F0BD002D20D10423B7
:104980009946033B9B46C4E7002C17D1022102E065
:10499000002C0AD10121321A01924A4643460A43A9
:1049A0005A48920082587B409746200001F068F9EF
:1049B000431F76309C4040420021BAE70321B8E70C
:1049C000280001F05DF9431F9D40002376304642E8
:1049D00099469B469DE70C239946093B9B4698E7E1
:1049E00080240022E403FF20B9E70024C2468B465E
:1049F0005A465346022AAED0032A7DD0012A31D12D
:104A0000012200201A400024A9E70122101A1B28C5
:104A100056DD1A4000200024A1E78023DB031D425D
:104A20004BD18023DB032B435C02640A3A00FF2056
:104A300095E76D016001854230D2019A0024013A68
:104A400001921B220127290064006D00002901DB6F
:104A5000A84201D82D1A3C43013A002AF3D16A1E1C
:104A600095412C4301987F300028CEDD620704D0A9
:104A70000F222240042A00D00434220103D5244A04
:104A8000019814408030FE2800DD64E70122A40173
:104A9000640AC0B21A4062E72C00A9E72D1A1A2254
:104AA0000124CFE76B02BCD500248023DB031C4329
:104AB0006402640A4246FF2051E71C42B3D1F4E786
:104AC00021002022C140101A8440621E94410C43F0
:104AD000620704D00F222240042A00D0043462016D
:104AE00004D5012201201A40002438E70122A40144
:104AF000640A1A40002032E78023DB031C4364026F
:104B0000640A5246FF202AE73475000074750000DD
:104B1000FFFFFFF7430270B542004C005D0AC30F70
:104B20004802120E460A240EC90FFF2A0FD0FF2C8E
:104B300011D00120A24200D070BDB542FCD18B4201
:104B40000DD0002AF8D12800431E9841F4E7012037
:104B5000002DF1D1EBE70120002EEDD1E9E7002097
:104B6000EAE7C0464302F0B542005D0AC30F4802BF
:104B7000440A4800120E000EC90FFF2A1FD0FF285A
:104B800022D0002A09D16E426E4100280FD1002C9C
:104B90000DD10020002D09D005E0002801D1002C06
:104BA00001D08B4213D0584201231843F0BD002E90
:104BB000F7D048424141012049420843F6E7002D21
:104BC000DDD002204042F1E7002CDAD0F9E7824242
:104BD000E9DC04DBA542E6D80020A542E6D2584233
:104BE000434101205B421843E0E7C0464302F0B571
:104BF00042004C005E0AC30F4802120E450A240E02
:104C0000C90FFF2A17D0FF2C19D0002A0BD17042F0
:104C10007041002C17D0002807D0484241410120A4
:104C200049420843F0BD002C13D08B4214D05842A7
:104C300001231843F6E70220002EF3D1E3E7022018
:104C4000002DEFD1E1E7002DE5D10020002EE9D0C5
:104C5000EDE7002DE9D1EAE7A242E8DC04DBAE4251
:104C6000E5D80020AE42DDD25842434101205B42EC
:104C70001843D7E7F0B557464E4645464300E0B4E3
:104C800046028846760A1F0EC40F002F47D0FF2F1A
:104C900025D0002380259A469946F600ED042E4340
:104CA0007F3F434642465D02D20F5B006D0A1B0EFA
:104CB000904640D0FF2B39D080220020ED00D20456
:104CC00015437F3BFB1842465746591C62408C46B1
:104CD00007430F2F5CD86F49BF00C9598F46002E7C
:104CE00045D108239A46063B9946DAE74246022810
:104CF0002DD0032800D1C3E0012800D0A2E0002578
:104D000000260240D4B27602ED05760A2E43E4076F
:104D1000264330001CBC90469946A246F0BD002EAA
:104D20001AD104239A46033B9946BAE72A00511E3A
:104D30008A41901CC6E70120002DC3D0280000F056
:104D40009FFF431F76309D4043420020BAE7012475
:104D5000FF2514400026D6E7300000F091FF431FE6
:104D60009E400023763047429A46994699E70C23A5
:104D70009A46093B994694E780260024F603FF25CE
:104D8000C1E735004846B2E7350022004846AEE7A5
:104D90002904090C0800370C3604360C2C0C794316
:104DA000704367437443060C64183619B14203D943
:104DB00080214902884647440004000C3104091848
:104DC0008D01681E8541890E2943350CED19AD0111
:104DD0000D43290104D5012369081D4063460D4395
:104DE00019007F31002925DD680704D00F202840F5
:104DF000042800D00435280103D5274980330D400D
:104E00001900FE29A3DC0124AD016E0A1440CDB2C5
:104E100079E78020C003064207D0054205D1284328
:104E20004602760A4446FF256DE706437602760A77
:104E3000FF2568E70124611A1B2905DD14400025C0
:104E4000002660E76346CBE72E002023CE40591AA8
:104E50008D406B1E9D412E43730704D00F233340BA
:104E6000042B00D00436730104D50124012514401D
:104E7000002648E70124B601760A1440002542E7DF
:104E800080260124F6032E437602760A1440FF257D
:104E900039E7C046B4750000FFFFFFF7F8B54A02D6
:104EA0004E0043024400240EC50F9B09360EC90F65
:104EB0009209FF2E00D183E001204140A01BA942AE
:104EC0005CD0002800DC95E0002E1CD1002A00D028
:104ED00081E05A0704D00F221A40042A00D004337C
:104EE0005A013BD50134FF2C00D191E001209B01F8
:104EF0005B0AE4B205405B02E4055B0AED0723436D
:104F00002B431800F8BDFF2CE3D08021C9040A43CD
:104F10001B2800DD90E016002021C640081A8240C0
:104F2000511E8A4132439B1A5A0115D59B019E0995
:104F3000300000F0A5FE0538864084426CDC041B7E
:104F4000330020200134E340041BA640721E96412A
:104F500000243343BDE70D005A07BCD1DF0801230D
:104F60001D40FF2C33D1002F00D190E08022D203CE
:104F700013003B435B025B0AFF24BCE700284FDDC4
:104F8000002E2ED0FF2CA4D08025ED042A431B2810
:104F900000DD97E016002025C640281A8240501EEA
:104FA000824132439B185A01D5D50134FF2C6DD074
:104FB00001227B481A405B08034013430D0088E739
:104FC000002A00D07AE777E7031EC5D100257B02CF
:104FD0005B0AE4B28FE701380028A4D0FF2C97D1F8
:104FE00077E7002A00D174E701380028DAD0FF2CD7
:104FF000CDD16EE7002821D1601CC0B2012858DD58
:1050000080279E1AFF0437402FD0D61A0D008FE755
:1050100001231D4000236EE7624B241A334058E7FA
:10502000002851D1601CC6B2012E33DDFF282DD0DF
:105030009B185B0804004CE7012274E7002C1AD08F
:10504000FF2E1FD08024E404404223431B2800DDB0
:1050500096E01D002024C540201A8340581E83413D
:105060002B43D31A34000D005EE7002E00D05FE71B
:1050700000250024ABE7002B44D0C0430028F0D02B
:10508000FF2EE3D11300FF240D0022E70D00FF24C3
:10509000002330E7002C5DD1002B7DD0002A00D109
:1050A00017E79B185A0100D456E73E4A0400134004
:1050B0000FE7002C1ED1002B2FD1002A65D0130042
:1050C0000D0006E701226DE7002C1FD1002B59D0FF
:1050D000C04300280BD0FF2E4FD01B285EDC1D00E4
:1050E0002024C540201A8340581E83412B439B181F
:1050F000340058E7002B1CD1002A49D013000D00C2
:10510000FF24E6E6130034000D00E2E6FF2E34D063
:105110008024E40440422343DFE7002A00D1D8E69C
:105120008027981AFF04074000D14DE7D31A0D00DD
:10513000CFE6FF24002A00D1CBE68020DB08C003A5
:10514000034204D0D208024201D113000D00DB005B
:10515000FF24BEE6002B10D0FF24002A00D1B8E6C1
:105160008020DB08C003034203D0D208024200D1F2
:105170001300DB000D00FF24ABE61300FF24A8E6BC
:1051800001236EE713003400A3E6002700251EE785
:1051900080270025FF03E9E613009AE60123A6E72E
:1051A000FFFFFF7DFFFFFFFB4302590A4300C20FD1
:1051B0001B0E00207E2B0EDD9D2B0DDC80200004BD
:1051C0000143952B0BDC9620C31AD9400B005842A3
:1051D000002A00D118007047034BD018FBE7963B1C
:1051E00099400B00F3E7C046FFFFFF7F70B5002832
:1051F00030D0C317C5185D40C40F280000F040FD33
:105200009E231B1A962B0DDC9622D21A95406A0219
:10521000520AD8B25202C005520AE407024322439E
:10522000100070BD992B19DC9922D21A9540124AB0
:105230002A40690704D00F210D40042D00D004320C
:10524000510103D50C4B1A409F231B1A9201520A9D
:10525000D8B2DFE7002400200022DBE705222E0081
:10526000121AB921D6402A00C91A8A40551EAA41ED
:1052700035001543DBE7C046FFFFFFFB70B5041E9A
:1052800028D000F0FDFC9E231B1A962B0ADC9622E8
:10529000D21A94406202520AD8B25202520AC0058F
:1052A000104370BD992B18DC9922D21A9440114AF0
:1052B0002240610704D00F210C40042C00D004329E
:1052C000510103D50B4B1A409F231B1A9201520A1E
:1052D000D8B2E2E700200022DFE705222500121AFB
:1052E000B921D5402200C91A8A40541EA2412C007F
:1052F0001443DCE7FFFFFFFBF8B556465F464D461B
:105300004446F0B40F00FD0FAA4609037C002E00AE
:105310005F00450F490A7F0D2943C5001803BC46AD
:10532000400A570F640DDB0F3843D2009A4500D175
:10533000AAE06646A61B002E00DCFFE06346002BB9
:1053400039D10300134300D0D9E06B0709D00F23F4
:105350002B40042B05D02B1DAB42AD416D424919AA
:105360001D000B0200D482E0CA4B01349C4200D1E4
:10537000FEE00A005646C84BED081A405007640587
:1053800052020543120B640D002112030B0D1B0585
:105390006405120B1A436308C04CF60714401C4303
:1053A000640064083443280021003CBC90469946C0
:1053B000A246AB46F8BDB74B9C42C6D080231B0427
:1053C0001843382E00DDEBE01F2E00DD1EE1202308
:1053D0009B1B9C4603006746BB409846130047460C
:1053E000F3403B436746BA40571EBA41134302009D
:1053F000F240EB1A9D42B6411D008A1A7642911B7B
:105400000B0231D54A02560A002E00D1B4E030001A
:1054100000F036FC0300083B1F2B00DDB5E0202226
:105420002900D21AD1409E400A009D4032439C423E
:1054300000DDB1E01C1B631C1F2B00DDD5E020212B
:1054400014002800C91A8C40D8408D400443DA402B
:10545000681E854111002543002476E7414631430B
:1054600000D134E2310045466B0700D06FE7564665
:105470004807ED08C9080543864B9C4235D00A030E
:105480006405120B640D7FE76346E31A9B46002B0D
:1054900000DC8BE06746002F3CD07E4FBC4200D141
:1054A00053E780273F0438435B46382B00DCF7E0A6
:1054B0000243501E82410020D2B253194218AB421F
:1054C00089411D00494289180B02CDD5714B013429
:1054D0009C4200D13DE101206F4A6B080A40284000
:1054E0001843D507054351082FE72B000B4300D184
:1054F000CBE180231B030B431A03120B44E7013E4D
:10550000002E6DD1AE1AB5429B41091A5B42C91AF1
:10551000350075E70700174300D116E701235B420A
:105520009C46E3445B46002B00D0E0E0AA18AA4268
:105530009B4109185B4259181500C5E7002E75D12B
:10554000661C7605760D012E00DCF3E0AE1AB0463F
:105550004545BF410E1A7F42F61B370200D48FE04B
:10556000551BAA42B641411A76428E1B9A464BE71A
:1055700056460022002507E7280000F081FB203076
:105580000300083B1F2B00DC49E72A002838824033
:1055900000259C4200DC4DE73F49E41A1140D4E667
:1055A0000243501E8241D3B2002222E7002B00D0DA
:1055B000F3E0631C9C465B055B0D012B00DC9FE068
:1055C000344B9C4500D1C3E0AA180918AA42804177
:1055D00040424118CD075208154349086446B4E6D5
:1055E0002C4B9C4200D0ECE6AFE611001F3CE140A2
:1055F0000C00202B00D17FE04021CB1A9A401543AC
:105600006A1E95410021254300242DE73300070041
:10561000203BDF403B00202E70D04027BE1BB04017
:105620000243501E824113430022E2E6002C4FD079
:10563000184CA44500D1ABE08024240476422143D9
:10564000382E00DDDFE01F2E00DD43E12027BC1BEC
:10565000A1460C004F46BC40A0462C004746F440F3
:105660003C434F46BD406F1EBD41F1402C43151BCE
:10567000AA429241411A5242891A64469A46BFE6AA
:1056800041464546314300D0BEE6002600240025B1
:10569000F2E6C046FF070000FFFF7FFFFFFF0F801D
:1056A0001F2B59DC2027FF1ABC46070063469F408A
:1056B0005B46B9461700DF40B8464F4643461F4396
:1056C00063469A40531E9A415B463A43D840F4E6FB
:1056D0000C002C435CD0F643002E55D1551BAA423A
:1056E000A441411A6442091B9A46644688E6964FD3
:1056F000BC4200D0D8E628E6002280E700208FE7F1
:105700000B002B43002C00D0C2E0002B00D101E1A4
:105710000300134300D118E6AB18AB42B641091899
:10572000764271180A0200D409E1884A1D0011402E
:1057300064460AE6002C5BD10E002E4300D08AE0BE
:105740000100114300D1C2E0010015009A46FCE5BA
:105750006446002100258FE620235B429C46DC4402
:1057600063460700DF405B46BC46202B00D1ACE01F
:1057700040235F46DB1B98400243501E8241634634
:1057800013431A00002098E66F4CA44500D057E759
:105790000100150064469A46D7E5002C39D10C006B
:1057A0002C436ED0DB43002B1AD0674CA44568D045
:1057B000382B00DDA4E01F2B00DDAEE020240F001D
:1057C000E41AA740B9462F00DF40B846A3464F462B
:1057D000444627435C46A5406C1EA541D9403D4345
:1057E000AD1895429B4109185B42591864466BE617
:1057F0000C002C4315D1010011437BD00100150092
:105800009A46514CA1E50D43691E8D410021ECB231
:105810002DE74D4CA44534D0802424045B42214321
:10582000C6E7040014434ED0ED084C072C438025F6
:10583000C9082D03294208D0C6082E4205D1D20836
:10584000410711430C009A463100620FC900E50080
:1058500011433D4C79E50600164300D175E5AE1ABB
:10586000B0464545BF410E1A7F42F61B370200D4B1
:10587000F4E5551BAA42B641411A7642891B9A4665
:1058800063E50100150064465FE5002200257BE525
:10589000002B3BD00300134315D0ED084B072B43DF
:1058A0008025C9082D03294207D0C4082C4204D101
:1058B00041070B002100D2081343C9005A0F1143BE
:1058C000DD00214C41E5204C3FE5002054E7002657
:1058D0000025D1E534000F00203CE7403C00202E9D
:1058E0002BD04027BE1BB1400D43691E8D410021C6
:1058F0002C43BCE6802100260903134C0025BBE5A0
:105900000D43691E8D410021EDB269E701001500CC
:105910000D4C1AE50100150017E51C000F00203C96
:10592000E7403C00202B0CD04027FB1A99400D4348
:10593000691E8D410021254352E70021D4E71D0057
:1059400092E50021F3E7C046FF070000FFFF7FFF5D
:10595000F0B55F4656464D464446F0B41F035C0022
:10596000DB0F9A46194B0E034D00C90F8046360BCC
:105970006D0D8B4691463F0B640D9D4219D0134B24
:105980009C421BD00123A54206D018003CBC904687
:105990009946A246AB46F0BDBE42F6D1C845F4D109
:1059A000D34510D0002DF0D1304303005A1E93414F
:1059B000EBE7310001230143E7D1E0E73A4301235C
:1059C000002AE2D1DEE70023DFE7C046FF07000040
:1059D000F0B55F46444656464D46F0B41F033C0BB7
:1059E0002C4F0E034D00A3465C008446360B6D0D14
:1059F000C90F9046640DDB0FBD422BD0254FBC4232
:105A00002ED0002D0ED130430700814678427841D8
:105A1000002C17D15F463A4314D14B460020002B8F
:105A20000AD006E0002C02D15846024301D0994228
:105A30001AD00123484218433CBC90469946A246DE
:105A4000AB46F0BD0028F2D05842584101224042F6
:105A50001043F1E737000743D0D002204042EBE784
:105A60005F461743CDD0F8E7A542E2DC05DB5E4593
:105A7000DFD808D000205E45DED2484248410123ED
:105A800040421843D8E7C445D3D80020C445F4D3D6
:105A9000D2E7C046FF070000F0B55F464D464446DA
:105AA0005646F0B41C03240BA4462F4C0F034D00A4
:105AB0005E00C90F80463F0B6D0D8B469146760DFB
:105AC000DB0FA54220D0284CA64222D0002D12D1B7
:105AD000384344424441002E20D0002C0DD05C427B
